{
  "_format": "hh-sol-artifact-1",
  "contractName": "AMENFT",
  "sourceName": "contracts/nft.sol",
  "abi": [
    {
      "inputs": [
        {
          "internalType": "address",
          "name": "initialOwner",
          "type": "address"
        }
      ],
      "stateMutability": "nonpayable",
      "type": "constructor"
    },
    {
      "inputs": [],
      "name": "ERC721EnumerableForbiddenBatchMint",
      "type": "error"
    },
    {
      "inputs": [
        {
          "internalType": "address",
          "name": "sender",
          "type": "address"
        },
        {
          "internalType": "uint256",
          "name": "tokenId",
          "type": "uint256"
        },
        {
          "internalType": "address",
          "name": "owner",
          "type": "address"
        }
      ],
      "name": "ERC721IncorrectOwner",
      "type": "error"
    },
    {
      "inputs": [
        {
          "internalType": "address",
          "name": "operator",
          "type": "address"
        },
        {
          "internalType": "uint256",
          "name": "tokenId",
          "type": "uint256"
        }
      ],
      "name": "ERC721InsufficientApproval",
      "type": "error"
    },
    {
      "inputs": [
        {
          "internalType": "address",
          "name": "approver",
          "type": "address"
        }
      ],
      "name": "ERC721InvalidApprover",
      "type": "error"
    },
    {
      "inputs": [
        {
          "internalType": "address",
          "name": "operator",
          "type": "address"
        }
      ],
      "name": "ERC721InvalidOperator",
      "type": "error"
    },
    {
      "inputs": [
        {
          "internalType": "address",
          "name": "owner",
          "type": "address"
        }
      ],
      "name": "ERC721InvalidOwner",
      "type": "error"
    },
    {
      "inputs": [
        {
          "internalType": "address",
          "name": "receiver",
          "type": "address"
        }
      ],
      "name": "ERC721InvalidReceiver",
      "type": "error"
    },
    {
      "inputs": [
        {
          "internalType": "address",
          "name": "sender",
          "type": "address"
        }
      ],
      "name": "ERC721InvalidSender",
      "type": "error"
    },
    {
      "inputs": [
        {
          "internalType": "uint256",
          "name": "tokenId",
          "type": "uint256"
        }
      ],
      "name": "ERC721NonexistentToken",
      "type": "error"
    },
    {
      "inputs": [
        {
          "internalType": "address",
          "name": "owner",
          "type": "address"
        },
        {
          "internalType": "uint256",
          "name": "index",
          "type": "uint256"
        }
      ],
      "name": "ERC721OutOfBoundsIndex",
      "type": "error"
    },
    {
      "inputs": [],
      "name": "EnforcedPause",
      "type": "error"
    },
    {
      "inputs": [],
      "name": "ExpectedPause",
      "type": "error"
    },
    {
      "inputs": [
        {
          "internalType": "address",
          "name": "owner",
          "type": "address"
        }
      ],
      "name": "OwnableInvalidOwner",
      "type": "error"
    },
    {
      "inputs": [
        {
          "internalType": "address",
          "name": "account",
          "type": "address"
        }
      ],
      "name": "OwnableUnauthorizedAccount",
      "type": "error"
    },
    {
      "anonymous": false,
      "inputs": [
        {
          "indexed": true,
          "internalType": "address",
          "name": "owner",
          "type": "address"
        },
        {
          "indexed": true,
          "internalType": "address",
          "name": "approved",
          "type": "address"
        },
        {
          "indexed": true,
          "internalType": "uint256",
          "name": "tokenId",
          "type": "uint256"
        }
      ],
      "name": "Approval",
      "type": "event"
    },
    {
      "anonymous": false,
      "inputs": [
        {
          "indexed": true,
          "internalType": "address",
          "name": "owner",
          "type": "address"
        },
        {
          "indexed": true,
          "internalType": "address",
          "name": "operator",
          "type": "address"
        },
        {
          "indexed": false,
          "internalType": "bool",
          "name": "approved",
          "type": "bool"
        }
      ],
      "name": "ApprovalForAll",
      "type": "event"
    },
    {
      "anonymous": false,
      "inputs": [
        {
          "indexed": false,
          "internalType": "uint256",
          "name": "_fromTokenId",
          "type": "uint256"
        },
        {
          "indexed": false,
          "internalType": "uint256",
          "name": "_toTokenId",
          "type": "uint256"
        }
      ],
      "name": "BatchMetadataUpdate",
      "type": "event"
    },
    {
      "anonymous": false,
      "inputs": [
        {
          "indexed": false,
          "internalType": "uint256",
          "name": "_tokenId",
          "type": "uint256"
        }
      ],
      "name": "MetadataUpdate",
      "type": "event"
    },
    {
      "anonymous": false,
      "inputs": [
        {
          "indexed": true,
          "internalType": "address",
          "name": "previousOwner",
          "type": "address"
        },
        {
          "indexed": true,
          "internalType": "address",
          "name": "newOwner",
          "type": "address"
        }
      ],
      "name": "OwnershipTransferred",
      "type": "event"
    },
    {
      "anonymous": false,
      "inputs": [
        {
          "indexed": false,
          "internalType": "address",
          "name": "account",
          "type": "address"
        }
      ],
      "name": "Paused",
      "type": "event"
    },
    {
      "anonymous": false,
      "inputs": [
        {
          "indexed": true,
          "internalType": "address",
          "name": "from",
          "type": "address"
        },
        {
          "indexed": true,
          "internalType": "address",
          "name": "to",
          "type": "address"
        },
        {
          "indexed": true,
          "internalType": "uint256",
          "name": "tokenId",
          "type": "uint256"
        }
      ],
      "name": "Transfer",
      "type": "event"
    },
    {
      "anonymous": false,
      "inputs": [
        {
          "indexed": false,
          "internalType": "address",
          "name": "account",
          "type": "address"
        }
      ],
      "name": "Unpaused",
      "type": "event"
    },
    {
      "inputs": [
        {
          "internalType": "address",
          "name": "to",
          "type": "address"
        },
        {
          "internalType": "uint256",
          "name": "tokenId",
          "type": "uint256"
        }
      ],
      "name": "approve",
      "outputs": [],
      "stateMutability": "nonpayable",
      "type": "function"
    },
    {
      "inputs": [
        {
          "internalType": "address",
          "name": "owner",
          "type": "address"
        }
      ],
      "name": "balanceOf",
      "outputs": [
        {
          "internalType": "uint256",
          "name": "",
          "type": "uint256"
        }
      ],
      "stateMutability": "view",
      "type": "function"
    },
    {
      "inputs": [
        {
          "internalType": "uint256",
          "name": "tokenId",
          "type": "uint256"
        }
      ],
      "name": "getApproved",
      "outputs": [
        {
          "internalType": "address",
          "name": "",
          "type": "address"
        }
      ],
      "stateMutability": "view",
      "type": "function"
    },
    {
      "inputs": [
        {
          "internalType": "address",
          "name": "owner",
          "type": "address"
        },
        {
          "internalType": "address",
          "name": "operator",
          "type": "address"
        }
      ],
      "name": "isApprovedForAll",
      "outputs": [
        {
          "internalType": "bool",
          "name": "",
          "type": "bool"
        }
      ],
      "stateMutability": "view",
      "type": "function"
    },
    {
      "inputs": [],
      "name": "name",
      "outputs": [
        {
          "internalType": "string",
          "name": "",
          "type": "string"
        }
      ],
      "stateMutability": "view",
      "type": "function"
    },
    {
      "inputs": [],
      "name": "owner",
      "outputs": [
        {
          "internalType": "address",
          "name": "",
          "type": "address"
        }
      ],
      "stateMutability": "view",
      "type": "function"
    },
    {
      "inputs": [
        {
          "internalType": "uint256",
          "name": "tokenId",
          "type": "uint256"
        }
      ],
      "name": "ownerOf",
      "outputs": [
        {
          "internalType": "address",
          "name": "",
          "type": "address"
        }
      ],
      "stateMutability": "view",
      "type": "function"
    },
    {
      "inputs": [],
      "name": "pause",
      "outputs": [],
      "stateMutability": "nonpayable",
      "type": "function"
    },
    {
      "inputs": [],
      "name": "paused",
      "outputs": [
        {
          "internalType": "bool",
          "name": "",
          "type": "bool"
        }
      ],
      "stateMutability": "view",
      "type": "function"
    },
    {
      "inputs": [],
      "name": "renounceOwnership",
      "outputs": [],
      "stateMutability": "nonpayable",
      "type": "function"
    },
    {
      "inputs": [
        {
          "internalType": "address",
          "name": "to",
          "type": "address"
        },
        {
          "internalType": "string",
          "name": "uri",
          "type": "string"
        }
      ],
      "name": "safeMint",
      "outputs": [],
      "stateMutability": "payable",
      "type": "function"
    },
    {
      "inputs": [
        {
          "internalType": "address",
          "name": "from",
          "type": "address"
        },
        {
          "internalType": "address",
          "name": "to",
          "type": "address"
        },
        {
          "internalType": "uint256",
          "name": "tokenId",
          "type": "uint256"
        }
      ],
      "name": "safeTransferFrom",
      "outputs": [],
      "stateMutability": "nonpayable",
      "type": "function"
    },
    {
      "inputs": [
        {
          "internalType": "address",
          "name": "from",
          "type": "address"
        },
        {
          "internalType": "address",
          "name": "to",
          "type": "address"
        },
        {
          "internalType": "uint256",
          "name": "tokenId",
          "type": "uint256"
        },
        {
          "internalType": "bytes",
          "name": "data",
          "type": "bytes"
        }
      ],
      "name": "safeTransferFrom",
      "outputs": [],
      "stateMutability": "nonpayable",
      "type": "function"
    },
    {
      "inputs": [
        {
          "internalType": "address",
          "name": "operator",
          "type": "address"
        },
        {
          "internalType": "bool",
          "name": "approved",
          "type": "bool"
        }
      ],
      "name": "setApprovalForAll",
      "outputs": [],
      "stateMutability": "nonpayable",
      "type": "function"
    },
    {
      "inputs": [
        {
          "internalType": "bytes4",
          "name": "interfaceId",
          "type": "bytes4"
        }
      ],
      "name": "supportsInterface",
      "outputs": [
        {
          "internalType": "bool",
          "name": "",
          "type": "bool"
        }
      ],
      "stateMutability": "view",
      "type": "function"
    },
    {
      "inputs": [],
      "name": "symbol",
      "outputs": [
        {
          "internalType": "string",
          "name": "",
          "type": "string"
        }
      ],
      "stateMutability": "view",
      "type": "function"
    },
    {
      "inputs": [
        {
          "internalType": "uint256",
          "name": "index",
          "type": "uint256"
        }
      ],
      "name": "tokenByIndex",
      "outputs": [
        {
          "internalType": "uint256",
          "name": "",
          "type": "uint256"
        }
      ],
      "stateMutability": "view",
      "type": "function"
    },
    {
      "inputs": [
        {
          "internalType": "address",
          "name": "owner",
          "type": "address"
        },
        {
          "internalType": "uint256",
          "name": "index",
          "type": "uint256"
        }
      ],
      "name": "tokenOfOwnerByIndex",
      "outputs": [
        {
          "internalType": "uint256",
          "name": "",
          "type": "uint256"
        }
      ],
      "stateMutability": "view",
      "type": "function"
    },
    {
      "inputs": [
        {
          "internalType": "uint256",
          "name": "tokenId",
          "type": "uint256"
        }
      ],
      "name": "tokenURI",
      "outputs": [
        {
          "internalType": "string",
          "name": "",
          "type": "string"
        }
      ],
      "stateMutability": "view",
      "type": "function"
    },
    {
      "inputs": [],
      "name": "totalSupply",
      "outputs": [
        {
          "internalType": "uint256",
          "name": "",
          "type": "uint256"
        }
      ],
      "stateMutability": "view",
      "type": "function"
    },
    {
      "inputs": [
        {
          "internalType": "address",
          "name": "from",
          "type": "address"
        },
        {
          "internalType": "address",
          "name": "to",
          "type": "address"
        },
        {
          "internalType": "uint256",
          "name": "tokenId",
          "type": "uint256"
        }
      ],
      "name": "transferFrom",
      "outputs": [],
      "stateMutability": "nonpayable",
      "type": "function"
    },
    {
      "inputs": [
        {
          "internalType": "address",
          "name": "newOwner",
          "type": "address"
        }
      ],
      "name": "transferOwnership",
      "outputs": [],
      "stateMutability": "nonpayable",
      "type": "function"
    },
    {
      "inputs": [],
      "name": "unpause",
      "outputs": [],
      "stateMutability": "nonpayable",
      "type": "function"
    }
  ],
  "bytecode": "0x60806040523480156200001157600080fd5b5060405162003724380380620037248339818101604052810190620000379190620002a3565b806040518060400160405280600781526020017f414d45204e4654000000000000000000000000000000000000000000000000008152506040518060400160405280600381526020017f414d4500000000000000000000000000000000000000000000000000000000008152508160009081620000b591906200054f565b508060019081620000c791906200054f565b5050506000600b60006101000a81548160ff021916908315150217905550600073ffffffffffffffffffffffffffffffffffffffff168173ffffffffffffffffffffffffffffffffffffffff16036200015a5760006040517f1e4fbdf700000000000000000000000000000000000000000000000000000000815260040162000151919062000647565b60405180910390fd5b6200016b816200017360201b60201c565b505062000664565b6000600b60019054906101000a900473ffffffffffffffffffffffffffffffffffffffff16905081600b60016101000a81548173ffffffffffffffffffffffffffffffffffffffff021916908373ffffffffffffffffffffffffffffffffffffffff1602179055508173ffffffffffffffffffffffffffffffffffffffff168173ffffffffffffffffffffffffffffffffffffffff167f8be0079c531659141344cd1fd0a4f28419497f9722a3daafe3b4186f6b6457e060405160405180910390a35050565b600080fd5b600073ffffffffffffffffffffffffffffffffffffffff82169050919050565b60006200026b826200023e565b9050919050565b6200027d816200025e565b81146200028957600080fd5b50565b6000815190506200029d8162000272565b92915050565b600060208284031215620002bc57620002bb62000239565b5b6000620002cc848285016200028c565b91505092915050565b600081519050919050565b7f4e487b7100000000000000000000000000000000000000000000000000000000600052604160045260246000fd5b7f4e487b7100000000000000000000000000000000000000000000000000000000600052602260045260246000fd5b600060028204905060018216806200035757607f821691505b6020821081036200036d576200036c6200030f565b5b50919050565b60008190508160005260206000209050919050565b60006020601f8301049050919050565b600082821b905092915050565b600060088302620003d77fffffffffffffffffffffffffffffffffffffffffffffffffffffffffffffffff8262000398565b620003e3868362000398565b95508019841693508086168417925050509392505050565b6000819050919050565b6000819050919050565b6000620004306200042a6200042484620003fb565b62000405565b620003fb565b9050919050565b6000819050919050565b6200044c836200040f565b620004646200045b8262000437565b848454620003a5565b825550505050565b600090565b6200047b6200046c565b6200048881848462000441565b505050565b5b81811015620004b057620004a460008262000471565b6001810190506200048e565b5050565b601f821115620004ff57620004c98162000373565b620004d48462000388565b81016020851015620004e4578190505b620004fc620004f38562000388565b8301826200048d565b50505b505050565b600082821c905092915050565b6000620005246000198460080262000504565b1980831691505092915050565b60006200053f838362000511565b9150826002028217905092915050565b6200055a82620002d5565b67ffffffffffffffff811115620005765762000575620002e0565b5b6200058282546200033e565b6200058f828285620004b4565b600060209050601f831160018114620005c75760008415620005b2578287015190505b620005be858262000531565b8655506200062e565b601f198416620005d78662000373565b60005b828110156200060157848901518255600182019150602085019450602081019050620005da565b868310156200062157848901516200061d601f89168262000511565b8355505b6001600288020188555050505b505050505050565b62000641816200025e565b82525050565b60006020820190506200065e600083018462000636565b92915050565b6130b080620006746000396000f3fe6080604052600436106101405760003560e01c80636352211e116100b6578063a22cb4651161006f578063a22cb4651461044a578063b88d4fde14610473578063c87b56dd1461049c578063d204c45e146104d9578063e985e9c5146104f5578063f2fde38b1461053257610140565b80636352211e1461034c57806370a0823114610389578063715018a6146103c65780638456cb59146103dd5780638da5cb5b146103f457806395d89b411461041f57610140565b806323b872dd1161010857806323b872dd1461023e5780632f745c59146102675780633f4ba83a146102a457806342842e0e146102bb5780634f6ccce7146102e45780635c975abb1461032157610140565b806301ffc9a71461014557806306fdde0314610182578063081812fc146101ad578063095ea7b3146101ea57806318160ddd14610213575b600080fd5b34801561015157600080fd5b5061016c60048036038101906101679190612476565b61055b565b60405161017991906124be565b60405180910390f35b34801561018e57600080fd5b5061019761056d565b6040516101a49190612569565b60405180910390f35b3480156101b957600080fd5b506101d460048036038101906101cf91906125c1565b6105ff565b6040516101e1919061262f565b60405180910390f35b3480156101f657600080fd5b50610211600480360381019061020c9190612676565b61061b565b005b34801561021f57600080fd5b50610228610631565b60405161023591906126c5565b60405180910390f35b34801561024a57600080fd5b50610265600480360381019061026091906126e0565b61063e565b005b34801561027357600080fd5b5061028e60048036038101906102899190612676565b610740565b60405161029b91906126c5565b60405180910390f35b3480156102b057600080fd5b506102b96107e9565b005b3480156102c757600080fd5b506102e260048036038101906102dd91906126e0565b6107fb565b005b3480156102f057600080fd5b5061030b600480360381019061030691906125c1565b61081b565b60405161031891906126c5565b60405180910390f35b34801561032d57600080fd5b50610336610891565b60405161034391906124be565b60405180910390f35b34801561035857600080fd5b50610373600480360381019061036e91906125c1565b6108a8565b604051610380919061262f565b60405180910390f35b34801561039557600080fd5b506103b060048036038101906103ab9190612733565b6108ba565b6040516103bd91906126c5565b60405180910390f35b3480156103d257600080fd5b506103db610974565b005b3480156103e957600080fd5b506103f2610988565b005b34801561040057600080fd5b5061040961099a565b604051610416919061262f565b60405180910390f35b34801561042b57600080fd5b506104346109c4565b6040516104419190612569565b60405180910390f35b34801561045657600080fd5b50610471600480360381019061046c919061278c565b610a56565b005b34801561047f57600080fd5b5061049a60048036038101906104959190612901565b610a6c565b005b3480156104a857600080fd5b506104c360048036038101906104be91906125c1565b610a89565b6040516104d09190612569565b60405180910390f35b6104f360048036038101906104ee9190612a25565b610a9b565b005b34801561050157600080fd5b5061051c60048036038101906105179190612a81565b610acf565b60405161052991906124be565b60405180910390f35b34801561053e57600080fd5b5061055960048036038101906105549190612733565b610b63565b005b600061056682610be9565b9050919050565b60606000805461057c90612af0565b80601f01602080910402602001604051908101604052809291908181526020018280546105a890612af0565b80156105f55780601f106105ca576101008083540402835291602001916105f5565b820191906000526020600020905b8154815290600101906020018083116105d857829003601f168201915b5050505050905090565b600061060a82610c4a565b5061061482610cd2565b9050919050565b61062d8282610628610d0f565b610d17565b5050565b6000600880549050905090565b600073ffffffffffffffffffffffffffffffffffffffff168273ffffffffffffffffffffffffffffffffffffffff16036106b05760006040517f64a0ae920000000000000000000000000000000000000000000000000000000081526004016106a7919061262f565b60405180910390fd5b60006106c483836106bf610d0f565b610d29565b90508373ffffffffffffffffffffffffffffffffffffffff168173ffffffffffffffffffffffffffffffffffffffff161461073a578382826040517f64283d7b00000000000000000000000000000000000000000000000000000000815260040161073193929190612b21565b60405180910390fd5b50505050565b600061074b836108ba565b82106107905782826040517fa57d13dc000000000000000000000000000000000000000000000000000000008152600401610787929190612b58565b60405180910390fd5b600660008473ffffffffffffffffffffffffffffffffffffffff1673ffffffffffffffffffffffffffffffffffffffff168152602001908152602001600020600083815260200190815260200160002054905092915050565b6107f1610d3f565b6107f9610dc6565b565b61081683838360405180602001604052806000815250610a6c565b505050565b6000610825610631565b821061086b576000826040517fa57d13dc000000000000000000000000000000000000000000000000000000008152600401610862929190612b58565b60405180910390fd5b6008828154811061087f5761087e612b81565b5b90600052602060002001549050919050565b6000600b60009054906101000a900460ff16905090565b60006108b382610c4a565b9050919050565b60008073ffffffffffffffffffffffffffffffffffffffff168273ffffffffffffffffffffffffffffffffffffffff160361092d5760006040517f89c62b64000000000000000000000000000000000000000000000000000000008152600401610924919061262f565b60405180910390fd5b600360008373ffffffffffffffffffffffffffffffffffffffff1673ffffffffffffffffffffffffffffffffffffffff168152602001908152602001600020549050919050565b61097c610d3f565b6109866000610e29565b565b610990610d3f565b610998610eef565b565b6000600b60019054906101000a900473ffffffffffffffffffffffffffffffffffffffff16905090565b6060600180546109d390612af0565b80601f01602080910402602001604051908101604052809291908181526020018280546109ff90612af0565b8015610a4c5780601f10610a2157610100808354040283529160200191610a4c565b820191906000526020600020905b815481529060010190602001808311610a2f57829003601f168201915b5050505050905090565b610a68610a61610d0f565b8383610f52565b5050565b610a7784848461063e565b610a83848484846110c1565b50505050565b6060610a9482611278565b9050919050565b6000600c6000815480929190610ab090612bdf565b919050559050610ac0838261138b565b610aca81836113a9565b505050565b6000600560008473ffffffffffffffffffffffffffffffffffffffff1673ffffffffffffffffffffffffffffffffffffffff16815260200190815260200160002060008373ffffffffffffffffffffffffffffffffffffffff1673ffffffffffffffffffffffffffffffffffffffff16815260200190815260200160002060009054906101000a900460ff16905092915050565b610b6b610d3f565b600073ffffffffffffffffffffffffffffffffffffffff168173ffffffffffffffffffffffffffffffffffffffff1603610bdd5760006040517f1e4fbdf7000000000000000000000000000000000000000000000000000000008152600401610bd4919061262f565b60405180910390fd5b610be681610e29565b50565b6000634906490660e01b7bffffffffffffffffffffffffffffffffffffffffffffffffffffffff1916827bffffffffffffffffffffffffffffffffffffffffffffffffffffffff19161480610c435750610c4282611405565b5b9050919050565b600080610c568361147f565b9050600073ffffffffffffffffffffffffffffffffffffffff168173ffffffffffffffffffffffffffffffffffffffff1603610cc957826040517f7e273289000000000000000000000000000000000000000000000000000000008152600401610cc091906126c5565b60405180910390fd5b80915050919050565b60006004600083815260200190815260200160002060009054906101000a900473ffffffffffffffffffffffffffffffffffffffff169050919050565b600033905090565b610d2483838360016114bc565b505050565b6000610d36848484611681565b90509392505050565b610d47610d0f565b73ffffffffffffffffffffffffffffffffffffffff16610d6561099a565b73ffffffffffffffffffffffffffffffffffffffff1614610dc457610d88610d0f565b6040517f118cdaa7000000000000000000000000000000000000000000000000000000008152600401610dbb919061262f565b60405180910390fd5b565b610dce61169f565b6000600b60006101000a81548160ff0219169083151502179055507f5db9ee0a495bf2e6ff9c91a7834c1ba4fdd244a5e8aa4e537bd38aeae4b073aa610e12610d0f565b604051610e1f919061262f565b60405180910390a1565b6000600b60019054906101000a900473ffffffffffffffffffffffffffffffffffffffff16905081600b60016101000a81548173ffffffffffffffffffffffffffffffffffffffff021916908373ffffffffffffffffffffffffffffffffffffffff1602179055508173ffffffffffffffffffffffffffffffffffffffff168173ffffffffffffffffffffffffffffffffffffffff167f8be0079c531659141344cd1fd0a4f28419497f9722a3daafe3b4186f6b6457e060405160405180910390a35050565b610ef76116df565b6001600b60006101000a81548160ff0219169083151502179055507f62e78cea01bee320cd4e420270b5ea74000d11b0c9f74754ebdbfc544b05a258610f3b610d0f565b604051610f48919061262f565b60405180910390a1565b600073ffffffffffffffffffffffffffffffffffffffff168273ffffffffffffffffffffffffffffffffffffffff1603610fc357816040517f5b08ba18000000000000000000000000000000000000000000000000000000008152600401610fba919061262f565b60405180910390fd5b80600560008573ffffffffffffffffffffffffffffffffffffffff1673ffffffffffffffffffffffffffffffffffffffff16815260200190815260200160002060008473ffffffffffffffffffffffffffffffffffffffff1673ffffffffffffffffffffffffffffffffffffffff16815260200190815260200160002060006101000a81548160ff0219169083151502179055508173ffffffffffffffffffffffffffffffffffffffff168373ffffffffffffffffffffffffffffffffffffffff167f17307eab39ab6107e8899845ad3d59bd9653f200f220920489ca2b5937696c31836040516110b491906124be565b60405180910390a3505050565b60008373ffffffffffffffffffffffffffffffffffffffff163b1115611272578273ffffffffffffffffffffffffffffffffffffffff1663150b7a02611105610d0f565b8685856040518563ffffffff1660e01b81526004016111279493929190612c7c565b6020604051808303816000875af192505050801561116357506040513d601f19601f820116820180604052508101906111609190612cdd565b60015b6111e7573d8060008114611193576040519150601f19603f3d011682016040523d82523d6000602084013e611198565b606091505b5060008151036111df57836040517f64a0ae920000000000000000000000000000000000000000000000000000000081526004016111d6919061262f565b60405180910390fd5b805181602001fd5b63150b7a0260e01b7bffffffffffffffffffffffffffffffffffffffffffffffffffffffff1916817bffffffffffffffffffffffffffffffffffffffffffffffffffffffff19161461127057836040517f64a0ae92000000000000000000000000000000000000000000000000000000008152600401611267919061262f565b60405180910390fd5b505b50505050565b606061128382610c4a565b506000600a600084815260200190815260200160002080546112a490612af0565b80601f01602080910402602001604051908101604052809291908181526020018280546112d090612af0565b801561131d5780601f106112f25761010080835404028352916020019161131d565b820191906000526020600020905b81548152906001019060200180831161130057829003601f168201915b50505050509050600061132e611720565b90506000815103611343578192505050611386565b600082511115611378578082604051602001611360929190612d46565b60405160208183030381529060405292505050611386565b6113818461175d565b925050505b919050565b6113a58282604051806020016040528060008152506117c6565b5050565b80600a600084815260200190815260200160002090816113c99190612f16565b507ff8e1a15aba9398e019f0b49df1a4fde98ee17ae345cb5f6b5e2c27f5033e8ce7826040516113f991906126c5565b60405180910390a15050565b60007f780e9d63000000000000000000000000000000000000000000000000000000007bffffffffffffffffffffffffffffffffffffffffffffffffffffffff1916827bffffffffffffffffffffffffffffffffffffffffffffffffffffffff191614806114785750611477826117e2565b5b9050919050565b60006002600083815260200190815260200160002060009054906101000a900473ffffffffffffffffffffffffffffffffffffffff169050919050565b80806114f55750600073ffffffffffffffffffffffffffffffffffffffff168273ffffffffffffffffffffffffffffffffffffffff1614155b1561162957600061150584610c4a565b9050600073ffffffffffffffffffffffffffffffffffffffff168373ffffffffffffffffffffffffffffffffffffffff161415801561157057508273ffffffffffffffffffffffffffffffffffffffff168173ffffffffffffffffffffffffffffffffffffffff1614155b801561158357506115818184610acf565b155b156115c557826040517fa9fbf51f0000000000000000000000000000000000000000000000000000000081526004016115bc919061262f565b60405180910390fd5b811561162757838573ffffffffffffffffffffffffffffffffffffffff168273ffffffffffffffffffffffffffffffffffffffff167f8c5be1e5ebec7d5bd14f71427d1e84f3dd0314c0f7b2291e5b200ac8c7c3b92560405160405180910390a45b505b836004600085815260200190815260200160002060006101000a81548173ffffffffffffffffffffffffffffffffffffffff021916908373ffffffffffffffffffffffffffffffffffffffff16021790555050505050565b600061168b6116df565b6116968484846118c4565b90509392505050565b6116a7610891565b6116dd576040517f8dfc202b00000000000000000000000000000000000000000000000000000000815260040160405180910390fd5b565b6116e7610891565b1561171e576040517fd93c066500000000000000000000000000000000000000000000000000000000815260040160405180910390fd5b565b60606040518060400160405280600781526020017f697066733a2f2f00000000000000000000000000000000000000000000000000815250905090565b606061176882610c4a565b506000611773611720565b9050600081511161179357604051806020016040528060008152506117be565b8061179d846119e1565b6040516020016117ae929190612d46565b6040516020818303038152906040525b915050919050565b6117d08383611aaf565b6117dd60008484846110c1565b505050565b60007f80ac58cd000000000000000000000000000000000000000000000000000000007bffffffffffffffffffffffffffffffffffffffffffffffffffffffff1916827bffffffffffffffffffffffffffffffffffffffffffffffffffffffff191614806118ad57507f5b5e139f000000000000000000000000000000000000000000000000000000007bffffffffffffffffffffffffffffffffffffffffffffffffffffffff1916827bffffffffffffffffffffffffffffffffffffffffffffffffffffffff1916145b806118bd57506118bc82611ba8565b5b9050919050565b6000806118d2858585611c12565b9050600073ffffffffffffffffffffffffffffffffffffffff168173ffffffffffffffffffffffffffffffffffffffff16036119165761191184611e2c565b611955565b8473ffffffffffffffffffffffffffffffffffffffff168173ffffffffffffffffffffffffffffffffffffffff1614611954576119538185611e75565b5b5b600073ffffffffffffffffffffffffffffffffffffffff168573ffffffffffffffffffffffffffffffffffffffff16036119975761199284611fd6565b6119d6565b8473ffffffffffffffffffffffffffffffffffffffff168173ffffffffffffffffffffffffffffffffffffffff16146119d5576119d485856120a7565b5b5b809150509392505050565b6060600060016119f084612132565b01905060008167ffffffffffffffff811115611a0f57611a0e6127d6565b5b6040519080825280601f01601f191660200182016040528015611a415781602001600182028036833780820191505090505b509050600082602001820190505b600115611aa4578080600190039150507f3031323334353637383961626364656600000000000000000000000000000000600a86061a8153600a8581611a9857611a97612fe8565b5b04945060008503611a4f575b819350505050919050565b600073ffffffffffffffffffffffffffffffffffffffff168273ffffffffffffffffffffffffffffffffffffffff1603611b215760006040517f64a0ae92000000000000000000000000000000000000000000000000000000008152600401611b18919061262f565b60405180910390fd5b6000611b2f83836000610d29565b9050600073ffffffffffffffffffffffffffffffffffffffff168173ffffffffffffffffffffffffffffffffffffffff1614611ba35760006040517f73c6ac6e000000000000000000000000000000000000000000000000000000008152600401611b9a919061262f565b60405180910390fd5b505050565b60007f01ffc9a7000000000000000000000000000000000000000000000000000000007bffffffffffffffffffffffffffffffffffffffffffffffffffffffff1916827bffffffffffffffffffffffffffffffffffffffffffffffffffffffff1916149050919050565b600080611c1e8461147f565b9050600073ffffffffffffffffffffffffffffffffffffffff168373ffffffffffffffffffffffffffffffffffffffff1614611c6057611c5f818486612285565b5b600073ffffffffffffffffffffffffffffffffffffffff168173ffffffffffffffffffffffffffffffffffffffff1614611cf157611ca26000856000806114bc565b6001600360008373ffffffffffffffffffffffffffffffffffffffff1673ffffffffffffffffffffffffffffffffffffffff168152602001908152602001600020600082825403925050819055505b600073ffffffffffffffffffffffffffffffffffffffff168573ffffffffffffffffffffffffffffffffffffffff1614611d74576001600360008773ffffffffffffffffffffffffffffffffffffffff1673ffffffffffffffffffffffffffffffffffffffff168152602001908152602001600020600082825401925050819055505b846002600086815260200190815260200160002060006101000a81548173ffffffffffffffffffffffffffffffffffffffff021916908373ffffffffffffffffffffffffffffffffffffffff160217905550838573ffffffffffffffffffffffffffffffffffffffff168273ffffffffffffffffffffffffffffffffffffffff167fddf252ad1be2c89b69c2b068fc378daa952ba7f163c4a11628f55a4df523b3ef60405160405180910390a4809150509392505050565b6008805490506009600083815260200190815260200160002081905550600881908060018154018082558091505060019003906000526020600020016000909190919091505550565b6000611e80836108ba565b9050600060076000848152602001908152602001600020549050818114611f65576000600660008673ffffffffffffffffffffffffffffffffffffffff1673ffffffffffffffffffffffffffffffffffffffff168152602001908152602001600020600084815260200190815260200160002054905080600660008773ffffffffffffffffffffffffffffffffffffffff1673ffffffffffffffffffffffffffffffffffffffff168152602001908152602001600020600084815260200190815260200160002081905550816007600083815260200190815260200160002081905550505b6007600084815260200190815260200160002060009055600660008573ffffffffffffffffffffffffffffffffffffffff1673ffffffffffffffffffffffffffffffffffffffff16815260200190815260200160002060008381526020019081526020016000206000905550505050565b60006001600880549050611fea9190613017565b905060006009600084815260200190815260200160002054905060006008838154811061201a57612019612b81565b5b90600052602060002001549050806008838154811061203c5761203b612b81565b5b90600052602060002001819055508160096000838152602001908152602001600020819055506009600085815260200190815260200160002060009055600880548061208b5761208a61304b565b5b6001900381819060005260206000200160009055905550505050565b600060016120b4846108ba565b6120be9190613017565b905081600660008573ffffffffffffffffffffffffffffffffffffffff1673ffffffffffffffffffffffffffffffffffffffff168152602001908152602001600020600083815260200190815260200160002081905550806007600084815260200190815260200160002081905550505050565b600080600090507a184f03e93ff9f4daa797ed6e38ed64bf6a1f0100000000000000008310612190577a184f03e93ff9f4daa797ed6e38ed64bf6a1f010000000000000000838161218657612185612fe8565b5b0492506040810190505b6d04ee2d6d415b85acef810000000083106121cd576d04ee2d6d415b85acef810000000083816121c3576121c2612fe8565b5b0492506020810190505b662386f26fc1000083106121fc57662386f26fc1000083816121f2576121f1612fe8565b5b0492506010810190505b6305f5e1008310612225576305f5e100838161221b5761221a612fe8565b5b0492506008810190505b612710831061224a5761271083816122405761223f612fe8565b5b0492506004810190505b6064831061226d576064838161226357612262612fe8565b5b0492506002810190505b600a831061227c576001810190505b80915050919050565b612290838383612349565b61234457600073ffffffffffffffffffffffffffffffffffffffff168373ffffffffffffffffffffffffffffffffffffffff160361230557806040517f7e2732890000000000000000000000000000000000000000000000000000000081526004016122fc91906126c5565b60405180910390fd5b81816040517f177e802f00000000000000000000000000000000000000000000000000000000815260040161233b929190612b58565b60405180910390fd5b505050565b60008073ffffffffffffffffffffffffffffffffffffffff168373ffffffffffffffffffffffffffffffffffffffff161415801561240157508273ffffffffffffffffffffffffffffffffffffffff168473ffffffffffffffffffffffffffffffffffffffff1614806123c257506123c18484610acf565b5b8061240057508273ffffffffffffffffffffffffffffffffffffffff166123e883610cd2565b73ffffffffffffffffffffffffffffffffffffffff16145b5b90509392505050565b6000604051905090565b600080fd5b600080fd5b60007fffffffff0000000000000000000000000000000000000000000000000000000082169050919050565b6124538161241e565b811461245e57600080fd5b50565b6000813590506124708161244a565b92915050565b60006020828403121561248c5761248b612414565b5b600061249a84828501612461565b91505092915050565b60008115159050919050565b6124b8816124a3565b82525050565b60006020820190506124d360008301846124af565b92915050565b600081519050919050565b600082825260208201905092915050565b60005b838110156125135780820151818401526020810190506124f8565b60008484015250505050565b6000601f19601f8301169050919050565b600061253b826124d9565b61254581856124e4565b93506125558185602086016124f5565b61255e8161251f565b840191505092915050565b600060208201905081810360008301526125838184612530565b905092915050565b6000819050919050565b61259e8161258b565b81146125a957600080fd5b50565b6000813590506125bb81612595565b92915050565b6000602082840312156125d7576125d6612414565b5b60006125e5848285016125ac565b91505092915050565b600073ffffffffffffffffffffffffffffffffffffffff82169050919050565b6000612619826125ee565b9050919050565b6126298161260e565b82525050565b60006020820190506126446000830184612620565b92915050565b6126538161260e565b811461265e57600080fd5b50565b6000813590506126708161264a565b92915050565b6000806040838503121561268d5761268c612414565b5b600061269b85828601612661565b92505060206126ac858286016125ac565b9150509250929050565b6126bf8161258b565b82525050565b60006020820190506126da60008301846126b6565b92915050565b6000806000606084860312156126f9576126f8612414565b5b600061270786828701612661565b935050602061271886828701612661565b9250506040612729868287016125ac565b9150509250925092565b60006020828403121561274957612748612414565b5b600061275784828501612661565b91505092915050565b612769816124a3565b811461277457600080fd5b50565b60008135905061278681612760565b92915050565b600080604083850312156127a3576127a2612414565b5b60006127b185828601612661565b92505060206127c285828601612777565b9150509250929050565b600080fd5b600080fd5b7f4e487b7100000000000000000000000000000000000000000000000000000000600052604160045260246000fd5b61280e8261251f565b810181811067ffffffffffffffff8211171561282d5761282c6127d6565b5b80604052505050565b600061284061240a565b905061284c8282612805565b919050565b600067ffffffffffffffff82111561286c5761286b6127d6565b5b6128758261251f565b9050602081019050919050565b82818337600083830152505050565b60006128a461289f84612851565b612836565b9050828152602081018484840111156128c0576128bf6127d1565b5b6128cb848285612882565b509392505050565b600082601f8301126128e8576128e76127cc565b5b81356128f8848260208601612891565b91505092915050565b6000806000806080858703121561291b5761291a612414565b5b600061292987828801612661565b945050602061293a87828801612661565b935050604061294b878288016125ac565b925050606085013567ffffffffffffffff81111561296c5761296b612419565b5b612978878288016128d3565b91505092959194509250565b600067ffffffffffffffff82111561299f5761299e6127d6565b5b6129a88261251f565b9050602081019050919050565b60006129c86129c384612984565b612836565b9050828152602081018484840111156129e4576129e36127d1565b5b6129ef848285612882565b509392505050565b600082601f830112612a0c57612a0b6127cc565b5b8135612a1c8482602086016129b5565b91505092915050565b60008060408385031215612a3c57612a3b612414565b5b6000612a4a85828601612661565b925050602083013567ffffffffffffffff811115612a6b57612a6a612419565b5b612a77858286016129f7565b9150509250929050565b60008060408385031215612a9857612a97612414565b5b6000612aa685828601612661565b9250506020612ab785828601612661565b9150509250929050565b7f4e487b7100000000000000000000000000000000000000000000000000000000600052602260045260246000fd5b60006002820490506001821680612b0857607f821691505b602082108103612b1b57612b1a612ac1565b5b50919050565b6000606082019050612b366000830186612620565b612b4360208301856126b6565b612b506040830184612620565b949350505050565b6000604082019050612b6d6000830185612620565b612b7a60208301846126b6565b9392505050565b7f4e487b7100000000000000000000000000000000000000000000000000000000600052603260045260246000fd5b7f4e487b7100000000000000000000000000000000000000000000000000000000600052601160045260246000fd5b6000612bea8261258b565b91507fffffffffffffffffffffffffffffffffffffffffffffffffffffffffffffffff8203612c1c57612c1b612bb0565b5b600182019050919050565b600081519050919050565b600082825260208201905092915050565b6000612c4e82612c27565b612c588185612c32565b9350612c688185602086016124f5565b612c718161251f565b840191505092915050565b6000608082019050612c916000830187612620565b612c9e6020830186612620565b612cab60408301856126b6565b8181036060830152612cbd8184612c43565b905095945050505050565b600081519050612cd78161244a565b92915050565b600060208284031215612cf357612cf2612414565b5b6000612d0184828501612cc8565b91505092915050565b600081905092915050565b6000612d20826124d9565b612d2a8185612d0a565b9350612d3a8185602086016124f5565b80840191505092915050565b6000612d528285612d15565b9150612d5e8284612d15565b91508190509392505050565b60008190508160005260206000209050919050565b60006020601f8301049050919050565b600082821b905092915050565b600060088302612dcc7fffffffffffffffffffffffffffffffffffffffffffffffffffffffffffffffff82612d8f565b612dd68683612d8f565b95508019841693508086168417925050509392505050565b6000819050919050565b6000612e13612e0e612e098461258b565b612dee565b61258b565b9050919050565b6000819050919050565b612e2d83612df8565b612e41612e3982612e1a565b848454612d9c565b825550505050565b600090565b612e56612e49565b612e61818484612e24565b505050565b5b81811015612e8557612e7a600082612e4e565b600181019050612e67565b5050565b601f821115612eca57612e9b81612d6a565b612ea484612d7f565b81016020851015612eb3578190505b612ec7612ebf85612d7f565b830182612e66565b50505b505050565b600082821c905092915050565b6000612eed60001984600802612ecf565b1980831691505092915050565b6000612f068383612edc565b9150826002028217905092915050565b612f1f826124d9565b67ffffffffffffffff811115612f3857612f376127d6565b5b612f428254612af0565b612f4d828285612e89565b600060209050601f831160018114612f805760008415612f6e578287015190505b612f788582612efa565b865550612fe0565b601f198416612f8e86612d6a565b60005b82811015612fb657848901518255600182019150602085019450602081019050612f91565b86831015612fd35784890151612fcf601f891682612edc565b8355505b6001600288020188555050505b505050505050565b7f4e487b7100000000000000000000000000000000000000000000000000000000600052601260045260246000fd5b60006130228261258b565b915061302d8361258b565b925082820390508181111561304557613044612bb0565b5b92915050565b7f4e487b7100000000000000000000000000000000000000000000000000000000600052603160045260246000fdfea2646970667358221220a07b5a1d81d8813e1cacce37a3fec6ea79c45d2193f3fa058d60c6027c7f595b64736f6c63430008140033",
  "linkReferences": {},
  "deployedLinkReferences": {}
}